:020000040000FA
:1000000018F09FE518F09FE518F09FE518F09FE5C0
:1000100018F09FE50000A0E1F0FF1FE518F09FE554
:1000200058000000400000004400000048000000AC
:100030004C000000000000005000000054000000D0
:10004000FEFFFFEAFEFFFFEAFEFFFFEAFEFFFFEA18
:10005000FEFFFFEAFEFFFFEAAC009FE50110A0E310
:10006000001080E5A4009FE5AA10A0E35520A0E3BE
:100070002430A0E3043080E50130A0E3003080E5C7
:100080000C1080E50C2080E5083090E5013B13E280
:10009000FCFFFF0A0330A0E3003080E50C1080E590
:1000A0000C2080E568009FE50410A0E3041080E5C3
:1000B0000210A0E3001080E558009FE5DBF021E38B
:1000C00000D0A0E1000040E2D7F021E300D0A0E1A1
:1000D000000040E2D1F021E300D0A0E1000040E2C6
:1000E000D2F021E300D0A0E1010B40E2D3F021E304
:1000F00000D0A0E1080040E210F021E300D0A0E130
:1001000002AB4DE210009FE510FF2FE100C11FE0A0
:1001100080C01FE000C01FE0E01F00402001000081
:10012000000000EB350000EB2C008FE2000C90E8A3
:1001300000A08AE000B08BE001704AE20B005AE1B7
:100140000000001A2D0000EB0F00BAE818E04FE2A3
:10015000010013E303F0471013FF2FE158190000CB
:1001600078190000102052E27800B0287800A12809
:10017000FBFFFF8A822EB0E13000B0283000A128BA
:1001800000409045004081451EFF2FE10030B0E364
:100190000040B0E30050B0E30060B0E3102052E252
:1001A0007800A128FCFFFF8A822EB0E13000A12850
:1001B000003081451EFF2FE101C08FE21CFF2FE1BF
:1001C0001FB501F045FB059886460FBC009C02B0A8
:1001D0007047000001C08FE21CFF2FE130B475466C
:1001E000AE4630BC704700007847C04603002DE99A
:1001F000F7FFFFEB0300BDE87B0400EB4433221163
:10020000570400EB0210A0E1EAFFFFEB1CC09FE5E2
:100210000FC08CE001001CE30DE08F120FE0A00185
:100220001CFF2FE101C08FE21CFF2FE101F0CAF893
:10023000050F00000C009FE50C109FE504209FE5D2
:1002400008309FE51EFF2FE1B8080040B8100040BD
:10025000B80800400FC08FE21CFF2FE1010000072B
:10026000C00E090600D5401C7047A04910228A60C4
:1002700008610868C006FCD570479C4A102393604B
:1002800010611068C006FCD5936011611068C0064B
:10029000FCD57047954930228A600861086880065D
:1002A000FCD54869704730B504049148914D04432A
:1002B00021002800FFF7E1FF21002800FFF7DDFF04
:1002C00030BC08BC1847894800214030816040217B
:1002D000C16001228260C16084480168C905FCD503
:1002E0000021C9438163416381600C2141607047F3
:1002F00070477047804800B54168804A11404160AE
:1003000041687F4A114341607E484168420611437B
:1003100041607C4823214038416201210162AA23C7
:10032000C3625522C262816A4905FCD5032101627C
:10033000C362C26274487549086075493620086016
:100340007449012080050861684908204860FFF76A
:10035000BAFF0020FFF7A7FF08BC1847002800D00D
:1003600001200104FF316C48013186E7704700B578
:10037000002800D001200104FF3168480131FFF757
:100380007CFF5A4903204031486058480168C9053C
:10039000FCD5FF2101318160DEE710B502008078D5
:1003A000FFF75CFF514940314C68012383401C43F7
:1003B0004C6088605079127900021043C8604B4845
:1003C0000168C905FCD5FF210131816010BC08BC62
:1003D0001847704700B5FFF741FF51490004084333
:1003E0008913FFF74AFFB7E700B5FFF737FF4C491E
:1003F000000408434B49FFF740FFADE700B5FFF7A6
:100400002DFF4749000408438913FFF736FFA3E790
:1004100000B5FFF723FF4249000408434249FFF7B4
:100420002CFF99E700B5FFF719FF3D490004084389
:100430008913FFF722FF8FE7F3B581B001982B4EA8
:1004400000070D00800E401CB062306A0105FCD52B
:100450008005800D00900024C01C870805E0B0696D
:10046000290000F069FF2D1D641CA742F7D8002069
:10047000B06201992D48C840C0070BD10800FFF7B2
:10048000EDFE0521000409024018FFF7EEFE2848A2
:10049000FFF7EBFE0098FEBC08BC1847F7B50098C4
:1004A000124F00070D00800E801CB862029878621F
:1004B00002980024C01C860805E0280000F02AFFEE
:1004C000F8612D1D641CA642F7D80020B862009880
:1004D000FFF7C4FE0521000409024018FFF7C5FE1E
:1004E0001448FFF7C2FE0298D5E70000000009E0BB
:1004F000000180000005D00000C002E0FF3FFF3F88
:1005000000400080C0C01FE03805000000F1FFFF80
:1005100000F2FFFF00F0FFFF0005FE000005D8001D
:100520000005400000012000000101004812000009
:100530000005F2000005FA00FF532DE918819FE540
:10054000006098E5080016E31400000A0C019FE51E
:100550003FFFFFEB08019FE5AA0300EB100010E34B
:100560000200000AAA0300EBBA0000EB350000EA23
:10057000020010E33300001A080010E30700000A2D
:10058000040010E30200000AA40300EBA60300EB42
:100590002C0000EAA70300EBA90300EB290000EA06
:1005A000C0509FE5040016E30170A0E32500000A97
:1005B000210000EA0040A0E3300098E51714A0E114
:1005C000010010E11900000AA400A0E1381088E53C
:1005D000001098E5200011E3FCFFFF0A141098E5D5
:1005E000010014E30B00001A000054E30400001A99
:1005F000040011E300109515000051130100A01331
:100600000800001A001195E7000051E30700000AF6
:100610000200A0E3030000EA001195E7000051E3A7
:100620000200000A0300A0E30FE0A0E111FF2FE1A8
:10063000014084E2200054E3DEFFFF3A300098E5F9
:10064000000050E3DAFFFF1A086088E50000A0E32D
:10065000D00F00E5FF53BDE804F05EE2000009E0C2
:100660000005FE000002FE00741900007748012119
:1006700081800021764A017041708260C1607047BC
:10068000724910B51C310020FFF7D6FE10BC08BC23
:10069000184710B56D4C1434A288402A00D9402266
:1006A00021688020FFF7FAFE216809182160A188DF
:1006B000081AA080EAE710B5644C002014342168C1
:1006C000FFF7BAFE216809182160A188081AA080E6
:1006D000DCE7002210B511008020FFF7DFFED5E730
:1006E00010B55C490020FFF7A7FECFE7F8B5574CDF
:1006F000564D14342600083631780027030001F0E7
:1007000099F808250580912525A19F25FFF7B8FFB9
:100710003078C009FFF75DFEF088A0803078410690
:10072000890F16D0012967D1C006C00E012863D1F8
:100730003079002860D17078FE2856D0FF285BD130
:1007400000F0BCF8002857D0FFF7C3FFF8BC08BC86
:100750001847737801F06EF80C070A500C50101807
:100760001D1F2531405000F0B7FE0FE0002000E0D3
:10077000012000F0F5FE35E0C006C00E3CD1B07897
:10078000802108432870DFE700F062FE0028DDD1F9
:1007900032E0002031E0C006C00E2DD12B48401CB5
:1007A00028E0C006C00E27D100F026FF002823D085
:1007B000FFF78FFF00F068F8C8E7C006C00E0128F9
:1007C0001AD16878002817D03079A978884213D2D6
:1007D0001E49103140180DE0C006C00E01280BD193
:1007E00000F0AEFF0028AFD106E000F070F800285E
:1007F00002D01848206017E08020FFF709FEA7808C
:10080000A4E7C8090BD1A08800289FD0FFF753FFA9
:10081000A08800289AD130784006800FECE7FFF7D7
:100820005FFF93E7C80902D0FFF733FF8EE7287810
:1008300001068BD54006400E2870FFF734FD85E792
:10084000802000E00020FFF7EDFD7FE70000004082
:10085000010001004400004001C08FE21CFF2FE1B5
:1008600010B5FFF703FF134901208004C86110BCD5
:1008700008BC18470F490120C004486170470D4962
:100880000120C004C86170470B480A490278012062
:100890008004002A01D048617047C861704710B5D4
:1008A000022804D00328E2D100F07CFBDFE700F04F
:1008B00096FBDCE7008002E001000040032000041A
:1008C000FF49C861FF490020087001207047FE49B8
:1008D0000020087001207047F0B4FC4AFC4C956879
:1008E0009268A66EFB4CB21A002314190126F60278
:1008F00032E001225202904218D2132809D0142863
:1009000009D0C21FFF3AF83A09D0012A09D1AA2218
:100910001EE0620A00E0620C1206120E18E0552278
:1009200016E01D2813D8EC4A125C11E0B04205D243
:10093000EA4A1218FF3AFF3A023A06E0E84AE94F5B
:100940001268BA4203D12A18921B127800E00022E2
:10095000E54F401CFA545B1C8B42CAD3F0BC704775
:10096000F8B5D84DEC68402C00D94024D848D94A75
:10097000816ED6488068091AA8688B180619B34298
:1009800003D2091A8C18042129702100FFF7A4FF53
:10099000D54922008220FFF781FDA8680019A860D0
:1009A000E868061BD048EE60A730070000F0B2FCF4
:1009B000001B390000F0C0FC002E02D1032028707B
:1009C00002E02878022807D0BD4901200004C86150
:1009D000C54900209F310873F8BC08BC1847C249BC
:1009E00010B5C2489F3100F0A7FCBF490D229F31CE
:1009F0008220FFF753FDB3490520087010BC08BCE6
:100A00001847F8B50500B1480E0001218068490279
:100A10008D42E1D389008D4226D2AA4F002420E0E6
:100A2000B148AE4A291940308A18005DFF3AFF3AB2
:100A3000023AE528107013D1A948AD4B02689A42DA
:100A400003D01000AB4A90420AD1312040018142CC
:100A500006D13869002803D100F03DFC012038613F
:100A6000641CB442DCD3B7E74019401A9E493200F7
:100A7000403100F0DEFBAFE7F8B59548914C816E50
:100A8000924865788068934A081AA16883184D19BE
:100A9000AB4207D2401A80186070052020700220F7
:100AA000FFF7B6FC6178A068FFF7ABFF6578A06838
:100AB0004019A060E068461B8B48E660A73007003D
:100AC00000F028FC401B390000F036FC002E02D05C
:100AD0002078052809D17A4901204004C86182495B
:100AE00000209F310873FFF77AFF75E7F8B5784863
:100AF000744D816E75486C788068764A091AA868CA
:100B00008B180419A34207D2081A801868700520B0
:100B100028700220FFF77CFC734B00201A006C78D1
:100B2000A968403208E00E189E5D175CBE4202D0F4
:100B30000020686002E0401CA042F4D30819A860BD
:100B4000E868061B6848EE60A730070000F0E2FB8B
:100B5000001B390000F0F0FB002E02D02878052899
:100B600009D169680120002900D000205E499F3129
:100B70000873FFF734FF2FE75B4810B58030427CE5
:100B8000017DC37C12061143827C1B0212041A43AE
:100B900011434C4A49029160817DC07D09020143A5
:100BA00051484C028830D46000F0B4FBA0420DD014
:100BB0008220FFF72DFC0220FFF72AFC4A49022081
:100BC0009F310873FFF70BFF002017E7012015E79F
:100BD00070B54548883000F09DFB434D02249F3599
:100BE000002806D12C73FFF7FAFE002070BC08BC69
:100BF00018473D488030007B000603D40220FFF7F1
:100C000007FCEFE70120F1E770B53748883000F0C6
:100C100081FB2C4C6178884200D260703249627846
:100C200040318220FFF73AFC032020702E48A73085
:100C3000050000F06FFB6178401A290000F07CFB92
:100C4000294900209F310873D0E7274810B5883024
:100C500000F060FB002809D023488030007B0006AC
:100C600001D5822000E00220FFF7D2FB1E490020C0
:100C70009F310873FFF7B3FEC0E610B5FFF7A8FF7A
:100C800000283BD01848702140300170002102221A
:100C900041708270C170017141710A228171C2710B
:100CA0000172417281723022C17202730122427359
:100CB0008173C173017441740249122048701BE0B2
:100CC000008002E02400004044000040B41900000D
:100CD000341A0000010800006C1800008400004075
:100CE000FC01000044332211840600405553425356
:100CF0002143658765872143FFF786FF7EE610B5B0
:100D0000FFF766FF00283DD0C8480022802302700C
:100D1000437001218270C170202101714371827181
:100D2000C2714E2202726522427278228272C172B0
:100D30000173417381734C22C17302745022427457
:100D4000432282743222C1740275312334224375E6
:100D500082753822C2754222017642766F228276EF
:100D6000C2767422027741778177C17720302E22B4
:100D70000370427030228270C170AD4924204870E7
:100D8000FFF742FF3AE610B5FFF722FF00280BD02D
:100D9000A64803210170002141708170C170A449EF
:100DA00004204870FFF730FF28E610B5FFF710FF6A
:100DB00000280FD09D4800210622017042708170EA
:100DC000C170017141718171C171994908204870E8
:100DD000FFF71AFF12E610B5FFF7FAFE00281BD046
:100DE0009448816E94488068091A94480818410A0A
:100DF0008E48491E0A0E02700A0C42700A0A82705E
:100E0000C17000210171022241718271C171884952
:100E100008204870FFF7F8FEF0E510B5FFF7D8FEA0
:100E200000281ED081480021017041700822817085
:100E3000C270804A0171936E7F4A92689A1A7F4B02
:100E4000D218530E4371530C520A8371C27102229D
:100E5000027241728272C17275490C204870FFF7AC
:100E6000D3FECBE5F8B5724D704E002069786F4A1D
:100E7000403602E0135C3354401C8842FAD31F29E9
:100E800074D16A48403000F045FA6D4988426DD10E
:100E9000301D00F03FFA654C5F34211D00F04CFA24
:100EA0002000173800F036FA2100083100F044FA2B
:100EB000707B002804D1B07B002801D0102802D913
:100EC0000120207356E0F07B1E28F9D010DC122898
:100ED00033D006DC00282DD00328F1D1FFF7CDFE5A
:100EE0007AE51528ECD01A28EAD1FFF74CFF73E514
:100EF00002272A282CD014DC232821D0252822D010
:100F00002828DDD1FFF738FE0028E9D0307B000625
:100F10001CD54C490120000448612F70FFF720FDCB
:100F20005AE52F2829D05528CAD05A28C8D1FFF70A
:100F30003CFF51E5FFF789FE4EE5FFF7E0FE4BE58C
:100F4000FFF76BFF48E5FFF746FF45E502200EE09F
:100F5000FFF712FE0028C3D0307B000618D43948B2
:100F60000121490441610120287035E512E0FFF7B5
:100F70004FFA2773FFF733FD2EE5FFF7FDFD00283D
:100F8000AED0307B000603D401202870686023E5D2
:100F90008220ECE78220FFF73BFA0220FFF738FAC5
:100FA0000620E1E7224910B50878022808D0032876
:100FB0000ED004280FD0052801D1002008701DE5AF
:100FC0001A484030C07B2828F9D1FFF7C9FC15E545
:100FD000FFF705FD12E58220FFF71AFAF8E710B5D2
:100FE00012490220FFF728FA1149487008780028B2
:100FF0000BD001280FD10D484030C07B2A2807D0E4
:101000002F2801D1FFF772FDF8E4FFF72BFFF5E47D
:10101000FFF732FDF2E40220FFF7FAF9034902205C
:101020005F310873FFF7DBFCE8E40000C406004012
:1010300024000040341A0000B41900000108000028
:1010400055534243008002E0F8B542490020086051
:10105000414EF8203070FF207070404A404CB07014
:10106000A468926E3F4B0321171B0800FA18930ADD
:1010700010E05A1E824201D13B4A00E0421C14019A
:1010800005052D0F2C43751870541209C91C6C707E
:10109000801CAA708342ECD8344C002001239B02B0
:1010A0003218215CD218401C40281170F8D3304906
:1010B000304A086890421DD02F4C02002F48A242AF
:1010C00001D13122C2702E4C0A68A24201D13222D3
:1010D000C27009682B4A914201D13321C1702A495B
:1010E00004200A18203A3418127FE418401C0B28F8
:1010F0002270F6D321487F1C2030390A07774177C8
:10110000390C8177390EC17720490F20000488619E
:10111000FFF7F0F80120FFF721F9FEE71C4910B5B1
:1011200000204861124817490068884205D100F044
:10113000B5F8002801D000F0AEF800F0AFF80028B4
:1011400001D000F0C0F8FFF77FFF10BC08BC002002
:10115000184700003400004084000040341A0000AA
:10116000B419000001080000FF0F00008A180000F9
:10117000FC010000443322117856341284040040EC
:101180002143658765872143CA180000008002E07B
:1011900000C002E0F8B5594E35697561584C3327E7
:1011A0002760271D0EC72061564A391D200000F018
:1011B0003FFB3561F8BC08BC184730B4504B3224B3
:1011C0001C601B1D07C34F4A30BC4D48191D1047FA
:1011D00030B44B4B34241C601B1D07C3494A30BC40
:1011E0004748191D1047F8B5444E07003569756129
:1011F00045480224A20082588A4215D9424AA000DA
:10120000803A1058884209D13A0021002000FFF7A7
:10121000D4FF3A0021002000FFF7DAFF3A00210056
:101220002000FFF7CAFF02E0641C1A2CE2D93561E6
:10123000C0E7F8B5354C6368002B00D16060334BD4
:101240002F4D00209B68283503E00E5C1F18401CC2
:10125000EE559042F9D39818FF250135A842A060B9
:1012600017D1200003C8FFF7BEFF254E14363068A3
:10127000002800D0FEE7224A200003C828322B00B5
:10128000FFF788FF3068002800D0FEE70020A0604C
:10129000606000208EE7012040030047184810B529
:1012A000352101600221416081600100154A14313D
:1012B00000F0BEFA124814300068002800D0012067
:1012C00010BC08BC184712480068000402D5012071
:1012D00040030047704710B50C4C1A2122680220C9
:1012E000FFF76BFF22681A210220FFF771FF044805
:1012F000143000680028E3D0FEE7E1E700F0FFFFCC
:1013000030070040F1FFFF7F341A00003800004032
:10131000008002E07847C0460120D0E50010D0E50B
:101320000230D0E50300D0E5021481E1031881E129
:10133000000C81E11EFF2FE17847C0462024A0E188
:101340000000C1E50120C1E52028A0E10220C1E59F
:10135000202CA0E10320C1E51EFF2FE1704770475C
:10136000704700000E50A0E1180000EB05E0A0E17E
:101370000050B0E10D10A0E10A30A0E10700C0E389
:1013800000D0A0E160D08DE220402DE9A8FBFFEB6A
:101390002040BDE80060A0E30070A0E30080A0E36F
:1013A00000B0A0E30710C1E305C0A0E1C009ACE8AC
:1013B000C009ACE8C009ACE8C009ACE801D0A0E1C4
:1013C0001EFF2FE10400C046C0462000FEF70CFFC0
:1013D00000009FE51EFF2FE15808004004009FE534
:1013E0001EFF2FE11EFF2FE15C0800400C109FE55F
:1013F0001800A0E3563412EF1EFF2FE10800000092
:10140000260002001EFF2FE100C09FE51CFF2FE118
:101410009502000000C09FE51CFF2FE1C7020000FD
:1014200000C09FE51CFF2FE1F302000000C09FE514
:101430001CFF2FE17508000000C09FE51CFF2FE195
:10144000F102000000C09FE51CFF2FE17F080000B3
:1014500070B51D480178C078C906C90E32D11A4B43
:10146000083B01280AD0184902288A780AD00328A4
:1014700028D1164810181860007819E01448186030
:10148000122015E01348002108E00478002C04D055
:10149000C478857824022C432018491C8A42F4D150
:1014A000017800290ED01860C178827808021043B4
:1014B0009988814200D99880FFF7EBF8012070BC31
:1014C00008BC18470020FAE71C000040041900007F
:1014D000D1180000E318000070B51F481E4B0078BB
:1014E000083BC106C90E29D01B481D00143D6A786F
:1014F00000791A4C012925D002292AD18F210840D0
:1015000001218140060604D50607360F0121090492
:10151000B140002A01D100071BD1A868084218D0A9
:10152000E868084000D001202070000A60701C604C
:10153000FFF7AFF8012070BC08BC18470648183800
:101540001860F5E7002A04D0A978884201D200206B
:10155000EAE70020EFE700001C00004044000040E4
:1015600070B5234B0200187819004988214DC00638
:10157000C00E20D0012839D0022837D118798F2306
:10158000012418408440030604D503071B0F0124DF
:1015900024049C406B78002B28D0030726D0AB682E
:1015A000234223D0002921D1002A16D0FEF730FF94
:1015B000E868204315E0012918D10224002A05D04B
:1015C0000120FEF7D3FEA888204304E00020FEF7A8
:1015D000CDFEA888A043A88004E0FEF723FFE868BA
:1015E000A043E860012070BC08BC18470020FAE75F
:1015F0001C00004000000040F8B54E484D4E807879
:1016000001271C3E00286BD04B4C65E06078022817
:1016100021D004285DD005281AD10098002817D1C0
:10162000A5788F2005403800A840290604D5290751
:10163000090F012000048840B16801432000B16017
:10164000FEF7ABFE2800FEF7C5FE2800FEF7D6FE2B
:101650002078041940E0374861798078814233D19D
:10166000707021790020B17032490C3900220A547F
:10167000401C0428FAD301253800B168A84008426C
:1016800002D02800FEF7B0FE01200004B168A84097
:10169000084204D0280080210843FEF7A5FE6D1CF7
:1016A000102DE9D325483500B0600020F0600120FE
:1016B000FEF75DFEE0794006A88801D5384301E0D9
:1016C00040084000A880C3E7E078A1780002084302
:1016D000BFE7E0780090BBE72078002896D11EE0B5
:1016E000002001242504802770700120B168A040EB
:1016F000084202D02000FEF777FE2800B168A04023
:10170000084203D020003843FEF76EFE641C102C04
:10171000EBD30A48B0600020F060FEF728FE0548D1
:1017200071788078884203D10120F8BC08BC184742
:101730000020FAE71C000040E3180000010001004F
:10174000F0B5394885B04078002868D00020374C83
:10175000009060E0607802282DD0042835D005285C
:1017600057D131491C310879B04252D1A0788F222B
:101770000125104085400190000605D501980125FE
:101780000007000F2D0485408878B84231D12648E3
:10179000816829438160C168A943C1602000FEF7C8
:1017A000FCFD0198FEF716FE0198FEF727FE029851
:1017B000284302902DE01C4861794078814228D06E
:1017C000E078A1780002084324E0A678E7780020BA
:1017D000029015481C300179B1421AD18078B84284
:1017E00017D10120009010481030815D039187557A
:1017F0000FE0039887420CD10298284209D10A4889
:101800008168A9438160C168A943C1600198FEF75E
:10181000EBFD20780419207800289BD1009805B0B2
:10182000F0BC08BC1847000000000040E3180000AE
:10183000104700007847C04601C05EE50C0053E148
:101840000330DE370C30DE2783C08EE01CFF2FE133
:101850007847C04610402DE9DFFEFFEB0010A0E303
:10186000001080E51040BDE81EFF2FE1EB3C904DDD
:1018700053444F53352E300002020100011000EC9A
:1018800003F802000100010000004578706c6f72DF
:1018900065323134382800000000000000000000EC
:1018A000000000000000000000004649524D574172
:1018B000524542494E2018BC41973738373800000E
:1018C0003D6E2B38020000D0070020454E41424CAF
:1018D00044120110010000004051C2031310010422
:1018E00020480109022000010100803209040000A3
:1018F0000208065062070582024000000705020246
:1019000040000000040309041C034E006500780039
:10191000200052006F0062006F00740069006300D5
:101920007300200028034E00650078002000550059
:1019300053004200200042006F006F0074006C00F2
:101940006F00610064006500720020001A0344000B
:1019500045004D004F0030003000300030003000B6
:101960003000300030000E034D0065006D006F0048
:1019700072007900ED060000000000009F080000E2
:101980000000000000000000000000000000000057
:101990000000000000000000000000000000000047
:1019A0000000000000000000000000000000000037
:1019B00000000000000000000010000000200000F7
:1019C00000300000004000000050000000600000F7
:1019D0000070000000800000000001000080010095
:1019E00000000200008002000000030000800300ED
:1019F00000000400008004000000050000800500D5
:101A000000000600008006000000070000800700BC
:101A10000090070000A0070000B0070000C007000A
:101A200000D00700FFFFFFFFFFFFFFFFFFFFFFFFEB
:101A3000FFFFFFFFFF0F0000FF1F0000FF2F000050
:101A4000FF3F0000FF4F0000FF5F0000FF6F00003E
:101A5000FF7F0000FFFF0000FF7F0100FFFF01008C
:101A6000FF7F0200FFFF0200FF7F0300FFFF030074
:101A7000FF7F0400FFFF0400FF7F0500FFFF05005C
:101A8000FF7F0600FFFF0600FF7F0700FF8F0700B4
:101A9000FF9F0700FFAF0700FFBF0700FFCF070052
:101AA000FFDF0700FFFFFFFFFFFFFFFFFFFFFFFF5D
:101AB000FFFFFFFFD41A00000000004044000000B8
:101AC00064010000181B0000440000407C1400006A
:101AD0008C01000000000000000000000000000079
:101AE00000000000000000000000000000000000F6
:101AF00000000000000000000000000000000000E6
:101B000000000000000000000000000060EA00008B
:081B10000000000000000000CD
:0400000500000120D6
:00000001FF
